:1000000000308A003928000022080739F700220C46
:10001000F800F80CF80C1F30F80578082407840065
:10002000831325188317F801F80AF70A1828F80D22
:10003000F70B1728A3080319202878088004232821
:10004000F80978088005080022308400831300082E
:10005000031938280130F800F701F70B2D28F80BA9
:100060002C284A30F700F70B33283628800B2A2833
:10007000080003081F398300A001A10183161F1483
:100080009F141F159F1183130912831290010030D2
:10009000F80092000030831692001F149F141F1561
:1000A0009F1183121F10F03097059D0500308316B5
:1000B0008600013088000030850083128601051C0F
:1000C00094283030A0002008353C031C79282008F3
:1000D000A2000130A300A501A40104206430A20005
:1000E00024202008A200A301A501A4010420A00A45
:1000F00063282008A10021082F3C0318912821081B
:10010000A2000130A300A501A40104206430A200D4
:1001100024202108A200A301A501A4010420A10319
:0C0120007B286128A001A1015F2863007A
:02400E00393F38
:00000001FF
;PIC16F877
;CRC=003B  CREATED="22-Apr-15 15:01"
